{
  "_format": "hh-sol-artifact-1",
  "contractName": "TokenFactory",
  "sourceName": "contracts/TokenFactory.sol",
  "abi": [
    {
      "anonymous": false,
      "inputs": [
        {
          "indexed": true,
          "internalType": "address",
          "name": "generateBy",
          "type": "address"
        },
        {
          "indexed": true,
          "internalType": "address",
          "name": "contractAddress",
          "type": "address"
        }
      ],
      "name": "NewToken",
      "type": "event"
    },
    {
      "inputs": [],
      "name": "_totalTokenCreated",
      "outputs": [
        {
          "internalType": "uint256",
          "name": "",
          "type": "uint256"
        }
      ],
      "stateMutability": "view",
      "type": "function"
    },
    {
      "inputs": [
        {
          "internalType": "string",
          "name": "tokenName",
          "type": "string"
        },
        {
          "internalType": "string",
          "name": "tokenSymbol",
          "type": "string"
        },
        {
          "internalType": "uint256",
          "name": "tokenSupply",
          "type": "uint256"
        }
      ],
      "name": "generateToken",
      "outputs": [
        {
          "internalType": "address",
          "name": "",
          "type": "address"
        }
      ],
      "stateMutability": "nonpayable",
      "type": "function"
    }
  ],
  "bytecode": "0x608060405234801561001057600080fd5b50612f96806100206000396000f3fe60806040523480156200001157600080fd5b50600436106200003a5760003560e01c8063287cb591146200003f5780633a29b6aa1462000075575b600080fd5b6200005d600480360381019062000057919062000276565b62000097565b6040516200006c919062000361565b60405180910390f35b6200007f620001d9565b6040516200008e91906200037e565b60405180910390f35b60008082858533604051620000ac90620001df565b620000bb94939291906200039b565b604051809103906000f080158015620000d8573d6000803e3d6000fd5b50905080600160003373ffffffffffffffffffffffffffffffffffffffff1673ffffffffffffffffffffffffffffffffffffffff16815260200190815260200160002060006101000a81548173ffffffffffffffffffffffffffffffffffffffff021916908373ffffffffffffffffffffffffffffffffffffffff16021790555060016000808282546200016d919062000479565b925050819055508073ffffffffffffffffffffffffffffffffffffffff163373ffffffffffffffffffffffffffffffffffffffff167f46960970e01c8cbebf9e58299b0acf8137b299ef06eb6c4f5be2c0443d5e5f2260405160405180910390a3809150509392505050565b60005481565b61297e80620005e383390190565b600062000204620001fe846200042a565b620003f6565b9050828152602081018484840111156200021d57600080fd5b6200022a84828562000514565b509392505050565b600082601f8301126200024457600080fd5b813562000256848260208601620001ed565b91505092915050565b6000813590506200027081620005c8565b92915050565b6000806000606084860312156200028c57600080fd5b600084013567ffffffffffffffff811115620002a757600080fd5b620002b58682870162000232565b935050602084013567ffffffffffffffff811115620002d357600080fd5b620002e18682870162000232565b9250506040620002f4868287016200025f565b9150509250925092565b6200030981620004d6565b82525050565b60006200031c826200045d565b62000328818562000468565b93506200033a81856020860162000523565b6200034581620005b7565b840191505092915050565b6200035b816200050a565b82525050565b6000602082019050620003786000830184620002fe565b92915050565b600060208201905062000395600083018462000350565b92915050565b6000608082019050620003b2600083018762000350565b8181036020830152620003c681866200030f565b90508181036040830152620003dc81856200030f565b9050620003ed6060830184620002fe565b95945050505050565b6000604051905081810181811067ffffffffffffffff8211171562000420576200041f62000588565b5b8060405250919050565b600067ffffffffffffffff82111562000448576200044762000588565b5b601f19601f8301169050602081019050919050565b600081519050919050565b600082825260208201905092915050565b600062000486826200050a565b915062000493836200050a565b9250827fffffffffffffffffffffffffffffffffffffffffffffffffffffffffffffffff03821115620004cb57620004ca62000559565b5b828201905092915050565b6000620004e382620004ea565b9050919050565b600073ffffffffffffffffffffffffffffffffffffffff82169050919050565b6000819050919050565b82818337600083830152505050565b60005b838110156200054357808201518184015260208101905062000526565b8381111562000553576000848401525b50505050565b7f4e487b7100000000000000000000000000000000000000000000000000000000600052601160045260246000fd5b7f4e487b7100000000000000000000000000000000000000000000000000000000600052604160045260246000fd5b6000601f19601f8301169050919050565b620005d3816200050a565b8114620005df57600080fd5b5056fe60806040523480156200001157600080fd5b506040516200297e3803806200297e8339818101604052810190620000379190620005fb565b8282816003908051906020019062000051929190620004ab565b5080600490805190602001906200006a929190620004ab565b5050506200008d620000816200016060201b60201c565b6200018a60201b60201c565b80600660006101000a81548173ffffffffffffffffffffffffffffffffffffffff021916908373ffffffffffffffffffffffffffffffffffffffff1602179055506200010a81620000e36200025060201b60201c565b600a620000f19190620008ec565b86620000fe919062000a29565b6200025960201b60201c565b620001566040518060400160405280601581526020017f4d696e742061206e657720546f6b656e202d2d2d3e000000000000000000000081525030620003d260201b620009011760201c565b5050505062000c20565b6000600660009054906101000a900473ffffffffffffffffffffffffffffffffffffffff16905090565b6000600560009054906101000a900473ffffffffffffffffffffffffffffffffffffffff16905081600560006101000a81548173ffffffffffffffffffffffffffffffffffffffff021916908373ffffffffffffffffffffffffffffffffffffffff1602179055508173ffffffffffffffffffffffffffffffffffffffff168173ffffffffffffffffffffffffffffffffffffffff167f8be0079c531659141344cd1fd0a4f28419497f9722a3daafe3b4186f6b6457e060405160405180910390a35050565b60006012905090565b600073ffffffffffffffffffffffffffffffffffffffff168273ffffffffffffffffffffffffffffffffffffffff161415620002cc576040517f08c379a0000000000000000000000000000000000000000000000000000000008152600401620002c39062000772565b60405180910390fd5b620002e0600083836200047860201b60201c565b8060026000828254620002f4919062000834565b92505081905550806000808473ffffffffffffffffffffffffffffffffffffffff1673ffffffffffffffffffffffffffffffffffffffff16815260200190815260200160002060008282546200034b919062000834565b925050819055508173ffffffffffffffffffffffffffffffffffffffff16600073ffffffffffffffffffffffffffffffffffffffff167fddf252ad1be2c89b69c2b068fc378daa952ba7f163c4a11628f55a4df523b3ef83604051620003b2919062000794565b60405180910390a3620003ce600083836200047d60201b60201c565b5050565b620004748282604051602401620003eb9291906200073e565b6040516020818303038152906040527f319af333000000000000000000000000000000000000000000000000000000007bffffffffffffffffffffffffffffffffffffffffffffffffffffffff19166020820180517bffffffffffffffffffffffffffffffffffffffffffffffffffffffff83818316178352505050506200048260201b60201c565b5050565b505050565b505050565b60008151905060006a636f6e736f6c652e6c6f679050602083016000808483855afa5050505050565b828054620004b99062000b0b565b90600052602060002090601f016020900481019282620004dd576000855562000529565b82601f10620004f857805160ff191683800117855562000529565b8280016001018555821562000529579182015b82811115620005285782518255916020019190600101906200050b565b5b5090506200053891906200053c565b5090565b5b80821115620005575760008160009055506001016200053d565b5090565b6000620005726200056c84620007e5565b620007b1565b9050828152602081018484840111156200058b57600080fd5b6200059884828562000ad5565b509392505050565b600081519050620005b18162000bec565b92915050565b600082601f830112620005c957600080fd5b8151620005db8482602086016200055b565b91505092915050565b600081519050620005f58162000c06565b92915050565b600080600080608085870312156200061257600080fd5b60006200062287828801620005e4565b945050602085015167ffffffffffffffff8111156200064057600080fd5b6200064e87828801620005b7565b935050604085015167ffffffffffffffff8111156200066c57600080fd5b6200067a87828801620005b7565b92505060606200068d87828801620005a0565b91505092959194509250565b620006a48162000a8a565b82525050565b6000620006b78262000818565b620006c3818562000823565b9350620006d581856020860162000ad5565b620006e08162000bce565b840191505092915050565b6000620006fa601f8362000823565b91507f45524332303a206d696e7420746f20746865207a65726f2061646472657373006000830152602082019050919050565b620007388162000abe565b82525050565b600060408201905081810360008301526200075a8185620006aa565b90506200076b602083018462000699565b9392505050565b600060208201905081810360008301526200078d81620006eb565b9050919050565b6000602082019050620007ab60008301846200072d565b92915050565b6000604051905081810181811067ffffffffffffffff82111715620007db57620007da62000b9f565b5b8060405250919050565b600067ffffffffffffffff82111562000803576200080262000b9f565b5b601f19601f8301169050602081019050919050565b600081519050919050565b600082825260208201905092915050565b6000620008418262000abe565b91506200084e8362000abe565b9250827fffffffffffffffffffffffffffffffffffffffffffffffffffffffffffffffff0382111562000886576200088562000b41565b5b828201905092915050565b6000808291508390505b6001851115620008e357808604811115620008bb57620008ba62000b41565b5b6001851615620008cb5780820291505b8081029050620008db8562000bdf565b94506200089b565b94509492505050565b6000620008f98262000abe565b9150620009068362000ac8565b9250620009357fffffffffffffffffffffffffffffffffffffffffffffffffffffffffffffffff84846200093d565b905092915050565b6000826200094f576001905062000a22565b816200095f576000905062000a22565b81600181146200097857600281146200098357620009b9565b600191505062000a22565b60ff84111562000998576200099762000b41565b5b8360020a915084821115620009b257620009b162000b41565b5b5062000a22565b5060208310610133831016604e8410600b8410161715620009f35782820a905083811115620009ed57620009ec62000b41565b5b62000a22565b62000a02848484600162000891565b9250905081840481111562000a1c5762000a1b62000b41565b5b81810290505b9392505050565b600062000a368262000abe565b915062000a438362000abe565b9250817fffffffffffffffffffffffffffffffffffffffffffffffffffffffffffffffff048311821515161562000a7f5762000a7e62000b41565b5b828202905092915050565b600062000a978262000a9e565b9050919050565b600073ffffffffffffffffffffffffffffffffffffffff82169050919050565b6000819050919050565b600060ff82169050919050565b60005b8381101562000af557808201518184015260208101905062000ad8565b8381111562000b05576000848401525b50505050565b6000600282049050600182168062000b2457607f821691505b6020821081141562000b3b5762000b3a62000b70565b5b50919050565b7f4e487b7100000000000000000000000000000000000000000000000000000000600052601160045260246000fd5b7f4e487b7100000000000000000000000000000000000000000000000000000000600052602260045260246000fd5b7f4e487b7100000000000000000000000000000000000000000000000000000000600052604160045260246000fd5b6000601f19601f8301169050919050565b60008160011c9050919050565b62000bf78162000a8a565b811462000c0357600080fd5b50565b62000c118162000abe565b811462000c1d57600080fd5b50565b611d4e8062000c306000396000f3fe608060405234801561001057600080fd5b506004361061010b5760003560e01c806370a08231116100a257806395d89b411161007157806395d89b41146102a6578063a457c2d7146102c4578063a9059cbb146102f4578063dd62ed3e14610324578063f2fde38b146103545761010b565b806370a0823114610232578063715018a61461026257806379cc67901461026c5780638da5cb5b146102885761010b565b8063313ce567116100de578063313ce567146101ac57806339509351146101ca57806340c10f19146101fa57806342966c68146102165761010b565b806306fdde0314610110578063095ea7b31461012e57806318160ddd1461015e57806323b872dd1461017c575b600080fd5b610118610370565b6040516101259190611913565b60405180910390f35b610148600480360381019061014391906113ad565b610402565b60405161015591906118f8565b60405180910390f35b610166610425565b6040516101739190611ae5565b60405180910390f35b6101966004803603810190610191919061135e565b61042f565b6040516101a391906118f8565b60405180910390f35b6101b461045e565b6040516101c19190611b00565b60405180910390f35b6101e460048036038101906101df91906113ad565b610467565b6040516101f191906118f8565b60405180910390f35b610214600480360381019061020f91906113ad565b61049e565b005b610230600480360381019061022b91906113e9565b610528565b005b61024c600480360381019061024791906112f9565b61053c565b6040516102599190611ae5565b60405180910390f35b61026a610584565b005b610286600480360381019061028191906113ad565b61060c565b005b61029061062c565b60405161029d91906118dd565b60405180910390f35b6102ae610656565b6040516102bb9190611913565b60405180910390f35b6102de60048036038101906102d991906113ad565b6106e8565b6040516102eb91906118f8565b60405180910390f35b61030e600480360381019061030991906113ad565b61075f565b60405161031b91906118f8565b60405180910390f35b61033e60048036038101906103399190611322565b610782565b60405161034b9190611ae5565b60405180910390f35b61036e600480360381019061036991906112f9565b610809565b005b60606003805461037f90611c49565b80601f01602080910402602001604051908101604052809291908181526020018280546103ab90611c49565b80156103f85780601f106103cd576101008083540402835291602001916103f8565b820191906000526020600020905b8154815290600101906020018083116103db57829003601f168201915b5050505050905090565b60008061040d61099d565b905061041a8185856109c7565b600191505092915050565b6000600254905090565b60008061043a61099d565b9050610447858285610b92565b610452858585610c1e565b60019150509392505050565b60006012905090565b60008061047261099d565b90506104938185856104848589610782565b61048e9190611b37565b6109c7565b600191505092915050565b6104a661099d565b73ffffffffffffffffffffffffffffffffffffffff166104c461062c565b73ffffffffffffffffffffffffffffffffffffffff161461051a576040517f08c379a000000000000000000000000000000000000000000000000000000000815260040161051190611a25565b60405180910390fd5b6105248282610e9f565b5050565b61053961053361099d565b82610fff565b50565b60008060008373ffffffffffffffffffffffffffffffffffffffff1673ffffffffffffffffffffffffffffffffffffffff168152602001908152602001600020549050919050565b61058c61099d565b73ffffffffffffffffffffffffffffffffffffffff166105aa61062c565b73ffffffffffffffffffffffffffffffffffffffff1614610600576040517f08c379a00000000000000000000000000000000000000000000000000000000081526004016105f790611a25565b60405180910390fd5b61060a60006111d6565b565b61061e8261061861099d565b83610b92565b6106288282610fff565b5050565b6000600560009054906101000a900473ffffffffffffffffffffffffffffffffffffffff16905090565b60606004805461066590611c49565b80601f016020809104026020016040519081016040528092919081815260200182805461069190611c49565b80156106de5780601f106106b3576101008083540402835291602001916106de565b820191906000526020600020905b8154815290600101906020018083116106c157829003601f168201915b5050505050905090565b6000806106f361099d565b905060006107018286610782565b905083811015610746576040517f08c379a000000000000000000000000000000000000000000000000000000000815260040161073d90611aa5565b60405180910390fd5b61075382868684036109c7565b60019250505092915050565b60008061076a61099d565b9050610777818585610c1e565b600191505092915050565b6000600160008473ffffffffffffffffffffffffffffffffffffffff1673ffffffffffffffffffffffffffffffffffffffff16815260200190815260200160002060008373ffffffffffffffffffffffffffffffffffffffff1673ffffffffffffffffffffffffffffffffffffffff16815260200190815260200160002054905092915050565b61081161099d565b73ffffffffffffffffffffffffffffffffffffffff1661082f61062c565b73ffffffffffffffffffffffffffffffffffffffff1614610885576040517f08c379a000000000000000000000000000000000000000000000000000000000815260040161087c90611a25565b60405180910390fd5b600073ffffffffffffffffffffffffffffffffffffffff168173ffffffffffffffffffffffffffffffffffffffff1614156108f5576040517f08c379a00000000000000000000000000000000000000000000000000000000081526004016108ec906119a5565b60405180910390fd5b6108fe816111d6565b50565b6109998282604051602401610917929190611935565b6040516020818303038152906040527f319af333000000000000000000000000000000000000000000000000000000007bffffffffffffffffffffffffffffffffffffffffffffffffffffffff19166020820180517bffffffffffffffffffffffffffffffffffffffffffffffffffffffff838183161783525050505061129c565b5050565b6000600660009054906101000a900473ffffffffffffffffffffffffffffffffffffffff16905090565b600073ffffffffffffffffffffffffffffffffffffffff168373ffffffffffffffffffffffffffffffffffffffff161415610a37576040517f08c379a0000000000000000000000000000000000000000000000000000000008152600401610a2e90611a85565b60405180910390fd5b600073ffffffffffffffffffffffffffffffffffffffff168273ffffffffffffffffffffffffffffffffffffffff161415610aa7576040517f08c379a0000000000000000000000000000000000000000000000000000000008152600401610a9e906119c5565b60405180910390fd5b80600160008573ffffffffffffffffffffffffffffffffffffffff1673ffffffffffffffffffffffffffffffffffffffff16815260200190815260200160002060008473ffffffffffffffffffffffffffffffffffffffff1673ffffffffffffffffffffffffffffffffffffffff168152602001908152602001600020819055508173ffffffffffffffffffffffffffffffffffffffff168373ffffffffffffffffffffffffffffffffffffffff167f8c5be1e5ebec7d5bd14f71427d1e84f3dd0314c0f7b2291e5b200ac8c7c3b92583604051610b859190611ae5565b60405180910390a3505050565b6000610b9e8484610782565b90507fffffffffffffffffffffffffffffffffffffffffffffffffffffffffffffffff8114610c185781811015610c0a576040517f08c379a0000000000000000000000000000000000000000000000000000000008152600401610c01906119e5565b60405180910390fd5b610c1784848484036109c7565b5b50505050565b600073ffffffffffffffffffffffffffffffffffffffff168373ffffffffffffffffffffffffffffffffffffffff161415610c8e576040517f08c379a0000000000000000000000000000000000000000000000000000000008152600401610c8590611a65565b60405180910390fd5b600073ffffffffffffffffffffffffffffffffffffffff168273ffffffffffffffffffffffffffffffffffffffff161415610cfe576040517f08c379a0000000000000000000000000000000000000000000000000000000008152600401610cf590611965565b60405180910390fd5b610d098383836112c5565b60008060008573ffffffffffffffffffffffffffffffffffffffff1673ffffffffffffffffffffffffffffffffffffffff16815260200190815260200160002054905081811015610d8f576040517f08c379a0000000000000000000000000000000000000000000000000000000008152600401610d8690611a05565b60405180910390fd5b8181036000808673ffffffffffffffffffffffffffffffffffffffff1673ffffffffffffffffffffffffffffffffffffffff16815260200190815260200160002081905550816000808573ffffffffffffffffffffffffffffffffffffffff1673ffffffffffffffffffffffffffffffffffffffff1681526020019081526020016000206000828254610e229190611b37565b925050819055508273ffffffffffffffffffffffffffffffffffffffff168473ffffffffffffffffffffffffffffffffffffffff167fddf252ad1be2c89b69c2b068fc378daa952ba7f163c4a11628f55a4df523b3ef84604051610e869190611ae5565b60405180910390a3610e998484846112ca565b50505050565b600073ffffffffffffffffffffffffffffffffffffffff168273ffffffffffffffffffffffffffffffffffffffff161415610f0f576040517f08c379a0000000000000000000000000000000000000000000000000000000008152600401610f0690611ac5565b60405180910390fd5b610f1b600083836112c5565b8060026000828254610f2d9190611b37565b92505081905550806000808473ffffffffffffffffffffffffffffffffffffffff1673ffffffffffffffffffffffffffffffffffffffff1681526020019081526020016000206000828254610f829190611b37565b925050819055508173ffffffffffffffffffffffffffffffffffffffff16600073ffffffffffffffffffffffffffffffffffffffff167fddf252ad1be2c89b69c2b068fc378daa952ba7f163c4a11628f55a4df523b3ef83604051610fe79190611ae5565b60405180910390a3610ffb600083836112ca565b5050565b600073ffffffffffffffffffffffffffffffffffffffff168273ffffffffffffffffffffffffffffffffffffffff16141561106f576040517f08c379a000000000000000000000000000000000000000000000000000000000815260040161106690611a45565b60405180910390fd5b61107b826000836112c5565b60008060008473ffffffffffffffffffffffffffffffffffffffff1673ffffffffffffffffffffffffffffffffffffffff16815260200190815260200160002054905081811015611101576040517f08c379a00000000000000000000000000000000000000000000000000000000081526004016110f890611985565b60405180910390fd5b8181036000808573ffffffffffffffffffffffffffffffffffffffff1673ffffffffffffffffffffffffffffffffffffffff1681526020019081526020016000208190555081600260008282546111589190611b8d565b92505081905550600073ffffffffffffffffffffffffffffffffffffffff168373ffffffffffffffffffffffffffffffffffffffff167fddf252ad1be2c89b69c2b068fc378daa952ba7f163c4a11628f55a4df523b3ef846040516111bd9190611ae5565b60405180910390a36111d1836000846112ca565b505050565b6000600560009054906101000a900473ffffffffffffffffffffffffffffffffffffffff16905081600560006101000a81548173ffffffffffffffffffffffffffffffffffffffff021916908373ffffffffffffffffffffffffffffffffffffffff1602179055508173ffffffffffffffffffffffffffffffffffffffff168173ffffffffffffffffffffffffffffffffffffffff167f8be0079c531659141344cd1fd0a4f28419497f9722a3daafe3b4186f6b6457e060405160405180910390a35050565b60008151905060006a636f6e736f6c652e6c6f679050602083016000808483855afa5050505050565b505050565b505050565b6000813590506112de81611cea565b92915050565b6000813590506112f381611d01565b92915050565b60006020828403121561130b57600080fd5b6000611319848285016112cf565b91505092915050565b6000806040838503121561133557600080fd5b6000611343858286016112cf565b9250506020611354858286016112cf565b9150509250929050565b60008060006060848603121561137357600080fd5b6000611381868287016112cf565b9350506020611392868287016112cf565b92505060406113a3868287016112e4565b9150509250925092565b600080604083850312156113c057600080fd5b60006113ce858286016112cf565b92505060206113df858286016112e4565b9150509250929050565b6000602082840312156113fb57600080fd5b6000611409848285016112e4565b91505092915050565b61141b81611bc1565b82525050565b61142a81611bd3565b82525050565b600061143b82611b1b565b6114458185611b26565b9350611455818560208601611c16565b61145e81611cd9565b840191505092915050565b6000611476602383611b26565b91507f45524332303a207472616e7366657220746f20746865207a65726f206164647260008301527f65737300000000000000000000000000000000000000000000000000000000006020830152604082019050919050565b60006114dc602283611b26565b91507f45524332303a206275726e20616d6f756e7420657863656564732062616c616e60008301527f63650000000000000000000000000000000000000000000000000000000000006020830152604082019050919050565b6000611542602683611b26565b91507f4f776e61626c653a206e6577206f776e657220697320746865207a65726f206160008301527f64647265737300000000000000000000000000000000000000000000000000006020830152604082019050919050565b60006115a8602283611b26565b91507f45524332303a20617070726f766520746f20746865207a65726f20616464726560008301527f73730000000000000000000000000000000000000000000000000000000000006020830152604082019050919050565b600061160e601d83611b26565b91507f45524332303a20696e73756666696369656e7420616c6c6f77616e63650000006000830152602082019050919050565b600061164e602683611b26565b91507f45524332303a207472616e7366657220616d6f756e742065786365656473206260008301527f616c616e636500000000000000000000000000000000000000000000000000006020830152604082019050919050565b60006116b4602083611b26565b91507f4f776e61626c653a2063616c6c6572206973206e6f7420746865206f776e65726000830152602082019050919050565b60006116f4602183611b26565b91507f45524332303a206275726e2066726f6d20746865207a65726f2061646472657360008301527f73000000000000000000000000000000000000000000000000000000000000006020830152604082019050919050565b600061175a602583611b26565b91507f45524332303a207472616e736665722066726f6d20746865207a65726f20616460008301527f64726573730000000000000000000000000000000000000000000000000000006020830152604082019050919050565b60006117c0602483611b26565b91507f45524332303a20617070726f76652066726f6d20746865207a65726f2061646460008301527f72657373000000000000000000000000000000000000000000000000000000006020830152604082019050919050565b6000611826602583611b26565b91507f45524332303a2064656372656173656420616c6c6f77616e63652062656c6f7760008301527f207a65726f0000000000000000000000000000000000000000000000000000006020830152604082019050919050565b600061188c601f83611b26565b91507f45524332303a206d696e7420746f20746865207a65726f2061646472657373006000830152602082019050919050565b6118c881611bff565b82525050565b6118d781611c09565b82525050565b60006020820190506118f26000830184611412565b92915050565b600060208201905061190d6000830184611421565b92915050565b6000602082019050818103600083015261192d8184611430565b905092915050565b6000604082019050818103600083015261194f8185611430565b905061195e6020830184611412565b9392505050565b6000602082019050818103600083015261197e81611469565b9050919050565b6000602082019050818103600083015261199e816114cf565b9050919050565b600060208201905081810360008301526119be81611535565b9050919050565b600060208201905081810360008301526119de8161159b565b9050919050565b600060208201905081810360008301526119fe81611601565b9050919050565b60006020820190508181036000830152611a1e81611641565b9050919050565b60006020820190508181036000830152611a3e816116a7565b9050919050565b60006020820190508181036000830152611a5e816116e7565b9050919050565b60006020820190508181036000830152611a7e8161174d565b9050919050565b60006020820190508181036000830152611a9e816117b3565b9050919050565b60006020820190508181036000830152611abe81611819565b9050919050565b60006020820190508181036000830152611ade8161187f565b9050919050565b6000602082019050611afa60008301846118bf565b92915050565b6000602082019050611b1560008301846118ce565b92915050565b600081519050919050565b600082825260208201905092915050565b6000611b4282611bff565b9150611b4d83611bff565b9250827fffffffffffffffffffffffffffffffffffffffffffffffffffffffffffffffff03821115611b8257611b81611c7b565b5b828201905092915050565b6000611b9882611bff565b9150611ba383611bff565b925082821015611bb657611bb5611c7b565b5b828203905092915050565b6000611bcc82611bdf565b9050919050565b60008115159050919050565b600073ffffffffffffffffffffffffffffffffffffffff82169050919050565b6000819050919050565b600060ff82169050919050565b60005b83811015611c34578082015181840152602081019050611c19565b83811115611c43576000848401525b50505050565b60006002820490506001821680611c6157607f821691505b60208210811415611c7557611c74611caa565b5b50919050565b7f4e487b7100000000000000000000000000000000000000000000000000000000600052601160045260246000fd5b7f4e487b7100000000000000000000000000000000000000000000000000000000600052602260045260246000fd5b6000601f19601f8301169050919050565b611cf381611bc1565b8114611cfe57600080fd5b50565b611d0a81611bff565b8114611d1557600080fd5b5056fea264697066735822122081ac178e9870c6d4576a52b1f67d64299c32ae47b79e909f416f6ec17f70a26f64736f6c63430008000033a26469706673582212207e26e08444f1ee08af7e0ace7d70e6c9de799ee6b4a7f2145faeb0b10f1203db64736f6c63430008000033",
  "linkReferences": {},
  "deployedLinkReferences": {}
}